{
  "contractName": "SatelliteCommand",
  "abi": [
    {
      "inputs": [],
      "stateMutability": "nonpayable",
      "type": "constructor"
    },
    {
      "inputs": [
        {
          "internalType": "address",
          "name": "",
          "type": "address"
        }
      ],
      "name": "authorizedGroundStations",
      "outputs": [
        {
          "internalType": "bool",
          "name": "",
          "type": "bool"
        }
      ],
      "stateMutability": "view",
      "type": "function"
    },
    {
      "inputs": [],
      "name": "satelliteOwner",
      "outputs": [
        {
          "internalType": "address",
          "name": "",
          "type": "address"
        }
      ],
      "stateMutability": "view",
      "type": "function"
    },
    {
      "inputs": [
        {
          "internalType": "address",
          "name": "groundStation",
          "type": "address"
        }
      ],
      "name": "authorizeGroundStation",
      "outputs": [],
      "stateMutability": "nonpayable",
      "type": "function"
    },
    {
      "inputs": [
        {
          "internalType": "string",
          "name": "command",
          "type": "string"
        }
      ],
      "name": "issueCommand",
      "outputs": [],
      "stateMutability": "nonpayable",
      "type": "function"
    }
  ],
  "bytecode": "0x608060405234801561001057600080fd5b50336000806101000a81548173ffffffffffffffffffffffffffffffffffffffff021916908373ffffffffffffffffffffffffffffffffffffffff1602179055506105c8806100606000396000f3fe608060405234801561001057600080fd5b506004361061004c5760003560e01c806305cf22c61461005157806305d95cf014610081578063c55be3c91461009d578063f57d901b146100b9575b600080fd5b61006b6004803603810190610066919061030f565b6100d7565b6040516100789190610432565b60405180910390f35b61009b60048036038101906100969190610338565b6100f7565b005b6100b760048036038101906100b2919061030f565b610186565b005b6100c161026e565b6040516100ce9190610417565b60405180910390f35b60016020528060005260406000206000915054906101000a900460ff1681565b600160003373ffffffffffffffffffffffffffffffffffffffff1673ffffffffffffffffffffffffffffffffffffffff16815260200190815260200160002060009054906101000a900460ff16610183576040517f08c379a000000000000000000000000000000000000000000000000000000000815260040161017a9061046d565b60405180910390fd5b50565b60008054906101000a900473ffffffffffffffffffffffffffffffffffffffff1673ffffffffffffffffffffffffffffffffffffffff163373ffffffffffffffffffffffffffffffffffffffff1614610214576040517f08c379a000000000000000000000000000000000000000000000000000000000815260040161020b9061044d565b60405180910390fd5b60018060008373ffffffffffffffffffffffffffffffffffffffff1673ffffffffffffffffffffffffffffffffffffffff16815260200190815260200160002060006101000a81548160ff02191690831515021790555050565b60008054906101000a900473ffffffffffffffffffffffffffffffffffffffff1681565b60006102a56102a0846104be565b61048d565b9050828152602081018484840111156102bd57600080fd5b6102c884828561053d565b509392505050565b6000813590506102df8161057b565b92915050565b600082601f8301126102f657600080fd5b8135610306848260208601610292565b91505092915050565b60006020828403121561032157600080fd5b600061032f848285016102d0565b91505092915050565b60006020828403121561034a57600080fd5b600082013567ffffffffffffffff81111561036457600080fd5b610370848285016102e5565b91505092915050565b610382816104ff565b82525050565b61039181610511565b82525050565b60006103a4600d836104ee565b91507f4e6f7420746865206f776e6572000000000000000000000000000000000000006000830152602082019050919050565b60006103e4600e836104ee565b91507f4e6f7420617574686f72697a65640000000000000000000000000000000000006000830152602082019050919050565b600060208201905061042c6000830184610379565b92915050565b60006020820190506104476000830184610388565b92915050565b6000602082019050818103600083015261046681610397565b9050919050565b60006020820190508181036000830152610486816103d7565b9050919050565b6000604051905081810181811067ffffffffffffffff821117156104b4576104b361054c565b5b8060405250919050565b600067ffffffffffffffff8211156104d9576104d861054c565b5b601f19601f8301169050602081019050919050565b600082825260208201905092915050565b600061050a8261051d565b9050919050565b60008115159050919050565b600073ffffffffffffffffffffffffffffffffffffffff82169050919050565b82818337600083830152505050565b7f4e487b7100000000000000000000000000000000000000000000000000000000600052604160045260246000fd5b610584816104ff565b811461058f57600080fd5b5056fea264697066735822122046b873a53b76b693a29f13ce1856795edf1d13c863975ee3ea52024b54d6e7b864736f6c63430008000033",
  "immutableReferences": {},
  "source": "// SPDX-License-Identifier: MIT\npragma solidity ^0.8.0;\n\ncontract SatelliteCommand {\n    address public satelliteOwner;\n    mapping(address => bool) public authorizedGroundStations;\n\n    constructor() {\n        satelliteOwner = msg.sender;\n    }\n\n    modifier onlyOwner() {\n        require(msg.sender == satelliteOwner, \"Not the owner\");\n        _;\n    }\n\n    modifier onlyAuthorized() {\n        require(authorizedGroundStations[msg.sender], \"Not authorized\");\n        _;\n    }\n\n    function authorizeGroundStation(address groundStation) public onlyOwner {\n        authorizedGroundStations[groundStation] = true;\n    }\n\n    function issueCommand(string memory command) public onlyAuthorized {\n        // Logic to execute command\n    }\n}\n",
  "sourcePath": "/home/sec/mini_project/Satellite_Project/contracts/SatelliteCommand.sol",
  "compiler": {
    "name": "solc",
    "version": "0.8.0+commit.c7dfd78e.Emscripten.clang"
  },
  "schemaVersion": "3.4.16",
  "updatedAt": "2024-10-25T14:04:07.175Z",
  "devdoc": {
    "kind": "dev",
    "methods": {},
    "version": 1
  },
  "userdoc": {
    "kind": "user",
    "methods": {},
    "version": 1
  }
}